{
  "_format": "hh-sol-artifact-1",
  "contractName": "RoboPunkNFT",
  "sourceName": "contracts/RoboPunk.sol",
  "abi": [
    {
      "inputs": [],
      "stateMutability": "payable",
      "type": "constructor"
    },
    {
      "anonymous": false,
      "inputs": [
        {
          "indexed": true,
          "internalType": "address",
          "name": "owner",
          "type": "address"
        },
        {
          "indexed": true,
          "internalType": "address",
          "name": "approved",
          "type": "address"
        },
        {
          "indexed": true,
          "internalType": "uint256",
          "name": "tokenId",
          "type": "uint256"
        }
      ],
      "name": "Approval",
      "type": "event"
    },
    {
      "anonymous": false,
      "inputs": [
        {
          "indexed": true,
          "internalType": "address",
          "name": "owner",
          "type": "address"
        },
        {
          "indexed": true,
          "internalType": "address",
          "name": "operator",
          "type": "address"
        },
        {
          "indexed": false,
          "internalType": "bool",
          "name": "approved",
          "type": "bool"
        }
      ],
      "name": "ApprovalForAll",
      "type": "event"
    },
    {
      "anonymous": false,
      "inputs": [
        {
          "indexed": true,
          "internalType": "address",
          "name": "previousOwner",
          "type": "address"
        },
        {
          "indexed": true,
          "internalType": "address",
          "name": "newOwner",
          "type": "address"
        }
      ],
      "name": "OwnershipTransferred",
      "type": "event"
    },
    {
      "anonymous": false,
      "inputs": [
        {
          "indexed": true,
          "internalType": "address",
          "name": "from",
          "type": "address"
        },
        {
          "indexed": true,
          "internalType": "address",
          "name": "to",
          "type": "address"
        },
        {
          "indexed": true,
          "internalType": "uint256",
          "name": "tokenId",
          "type": "uint256"
        }
      ],
      "name": "Transfer",
      "type": "event"
    },
    {
      "inputs": [
        {
          "internalType": "address",
          "name": "to",
          "type": "address"
        },
        {
          "internalType": "uint256",
          "name": "tokenId",
          "type": "uint256"
        }
      ],
      "name": "approve",
      "outputs": [],
      "stateMutability": "nonpayable",
      "type": "function"
    },
    {
      "inputs": [
        {
          "internalType": "address",
          "name": "owner",
          "type": "address"
        }
      ],
      "name": "balanceOf",
      "outputs": [
        {
          "internalType": "uint256",
          "name": "",
          "type": "uint256"
        }
      ],
      "stateMutability": "view",
      "type": "function"
    },
    {
      "inputs": [
        {
          "internalType": "uint256",
          "name": "tokenId",
          "type": "uint256"
        }
      ],
      "name": "getApproved",
      "outputs": [
        {
          "internalType": "address",
          "name": "",
          "type": "address"
        }
      ],
      "stateMutability": "view",
      "type": "function"
    },
    {
      "inputs": [
        {
          "internalType": "address",
          "name": "owner",
          "type": "address"
        },
        {
          "internalType": "address",
          "name": "operator",
          "type": "address"
        }
      ],
      "name": "isApprovedForAll",
      "outputs": [
        {
          "internalType": "bool",
          "name": "",
          "type": "bool"
        }
      ],
      "stateMutability": "view",
      "type": "function"
    },
    {
      "inputs": [],
      "name": "isPublicMintEnabled",
      "outputs": [
        {
          "internalType": "bool",
          "name": "",
          "type": "bool"
        }
      ],
      "stateMutability": "view",
      "type": "function"
    },
    {
      "inputs": [],
      "name": "maxPerWallet",
      "outputs": [
        {
          "internalType": "uint256",
          "name": "",
          "type": "uint256"
        }
      ],
      "stateMutability": "view",
      "type": "function"
    },
    {
      "inputs": [],
      "name": "maxSupply",
      "outputs": [
        {
          "internalType": "uint256",
          "name": "",
          "type": "uint256"
        }
      ],
      "stateMutability": "view",
      "type": "function"
    },
    {
      "inputs": [
        {
          "internalType": "uint256",
          "name": "_quantity",
          "type": "uint256"
        }
      ],
      "name": "mint",
      "outputs": [],
      "stateMutability": "payable",
      "type": "function"
    },
    {
      "inputs": [],
      "name": "mintPrice",
      "outputs": [
        {
          "internalType": "uint256",
          "name": "",
          "type": "uint256"
        }
      ],
      "stateMutability": "view",
      "type": "function"
    },
    {
      "inputs": [],
      "name": "name",
      "outputs": [
        {
          "internalType": "string",
          "name": "",
          "type": "string"
        }
      ],
      "stateMutability": "view",
      "type": "function"
    },
    {
      "inputs": [],
      "name": "owner",
      "outputs": [
        {
          "internalType": "address",
          "name": "",
          "type": "address"
        }
      ],
      "stateMutability": "view",
      "type": "function"
    },
    {
      "inputs": [
        {
          "internalType": "uint256",
          "name": "tokenId",
          "type": "uint256"
        }
      ],
      "name": "ownerOf",
      "outputs": [
        {
          "internalType": "address",
          "name": "",
          "type": "address"
        }
      ],
      "stateMutability": "view",
      "type": "function"
    },
    {
      "inputs": [],
      "name": "renounceOwnership",
      "outputs": [],
      "stateMutability": "nonpayable",
      "type": "function"
    },
    {
      "inputs": [
        {
          "internalType": "address",
          "name": "from",
          "type": "address"
        },
        {
          "internalType": "address",
          "name": "to",
          "type": "address"
        },
        {
          "internalType": "uint256",
          "name": "tokenId",
          "type": "uint256"
        }
      ],
      "name": "safeTransferFrom",
      "outputs": [],
      "stateMutability": "nonpayable",
      "type": "function"
    },
    {
      "inputs": [
        {
          "internalType": "address",
          "name": "from",
          "type": "address"
        },
        {
          "internalType": "address",
          "name": "to",
          "type": "address"
        },
        {
          "internalType": "uint256",
          "name": "tokenId",
          "type": "uint256"
        },
        {
          "internalType": "bytes",
          "name": "data",
          "type": "bytes"
        }
      ],
      "name": "safeTransferFrom",
      "outputs": [],
      "stateMutability": "nonpayable",
      "type": "function"
    },
    {
      "inputs": [
        {
          "internalType": "address",
          "name": "operator",
          "type": "address"
        },
        {
          "internalType": "bool",
          "name": "approved",
          "type": "bool"
        }
      ],
      "name": "setApprovalForAll",
      "outputs": [],
      "stateMutability": "nonpayable",
      "type": "function"
    },
    {
      "inputs": [
        {
          "internalType": "string",
          "name": "_baseTokenTokenUrl",
          "type": "string"
        }
      ],
      "name": "setBaseToken",
      "outputs": [],
      "stateMutability": "nonpayable",
      "type": "function"
    },
    {
      "inputs": [
        {
          "internalType": "bool",
          "name": "_isPublicMintEnabled",
          "type": "bool"
        }
      ],
      "name": "setPublicMintEnabled",
      "outputs": [],
      "stateMutability": "nonpayable",
      "type": "function"
    },
    {
      "inputs": [
        {
          "internalType": "bytes4",
          "name": "interfaceId",
          "type": "bytes4"
        }
      ],
      "name": "supportsInterface",
      "outputs": [
        {
          "internalType": "bool",
          "name": "",
          "type": "bool"
        }
      ],
      "stateMutability": "view",
      "type": "function"
    },
    {
      "inputs": [],
      "name": "symbol",
      "outputs": [
        {
          "internalType": "string",
          "name": "",
          "type": "string"
        }
      ],
      "stateMutability": "view",
      "type": "function"
    },
    {
      "inputs": [
        {
          "internalType": "uint256",
          "name": "tokenId",
          "type": "uint256"
        }
      ],
      "name": "tokenURI",
      "outputs": [
        {
          "internalType": "string",
          "name": "",
          "type": "string"
        }
      ],
      "stateMutability": "view",
      "type": "function"
    },
    {
      "inputs": [
        {
          "internalType": "uint256",
          "name": "_tokenId",
          "type": "uint256"
        }
      ],
      "name": "tokenUrl",
      "outputs": [
        {
          "internalType": "string",
          "name": "",
          "type": "string"
        }
      ],
      "stateMutability": "view",
      "type": "function"
    },
    {
      "inputs": [],
      "name": "totalSupply",
      "outputs": [
        {
          "internalType": "uint256",
          "name": "",
          "type": "uint256"
        }
      ],
      "stateMutability": "view",
      "type": "function"
    },
    {
      "inputs": [
        {
          "internalType": "address",
          "name": "from",
          "type": "address"
        },
        {
          "internalType": "address",
          "name": "to",
          "type": "address"
        },
        {
          "internalType": "uint256",
          "name": "tokenId",
          "type": "uint256"
        }
      ],
      "name": "transferFrom",
      "outputs": [],
      "stateMutability": "nonpayable",
      "type": "function"
    },
    {
      "inputs": [
        {
          "internalType": "address",
          "name": "newOwner",
          "type": "address"
        }
      ],
      "name": "transferOwnership",
      "outputs": [],
      "stateMutability": "nonpayable",
      "type": "function"
    },
    {
      "inputs": [
        {
          "internalType": "address",
          "name": "",
          "type": "address"
        }
      ],
      "name": "walletMints",
      "outputs": [
        {
          "internalType": "uint256",
          "name": "",
          "type": "uint256"
        }
      ],
      "stateMutability": "view",
      "type": "function"
    },
    {
      "inputs": [],
      "name": "withdraw",
      "outputs": [],
      "stateMutability": "nonpayable",
      "type": "function"
    },
    {
      "inputs": [],
      "name": "withdrawWallet",
      "outputs": [
        {
          "internalType": "address payable",
          "name": "",
          "type": "address"
        }
      ],
      "stateMutability": "view",
      "type": "function"
    }
  ],
  "bytecode": "0x60806040526040518060400160405280600981526020017f526f626f50756e6b7300000000000000000000000000000000000000000000008152506040518060400160405280600281526020017f525000000000000000000000000000000000000000000000000000000000000081525081600090816200008191906200042b565b5080600190816200009391906200042b565b505050620000b6620000aa620000e360201b60201c565b620000eb60201b60201c565b6658d15e1762800060078190555060006008819055506103e86009819055506003600a8190555062000512565b600033905090565b6000600660009054906101000a900473ffffffffffffffffffffffffffffffffffffffff16905081600660006101000a81548173ffffffffffffffffffffffffffffffffffffffff021916908373ffffffffffffffffffffffffffffffffffffffff1602179055508173ffffffffffffffffffffffffffffffffffffffff168173ffffffffffffffffffffffffffffffffffffffff167f8be0079c531659141344cd1fd0a4f28419497f9722a3daafe3b4186f6b6457e060405160405180910390a35050565b600081519050919050565b7f4e487b7100000000000000000000000000000000000000000000000000000000600052604160045260246000fd5b7f4e487b7100000000000000000000000000000000000000000000000000000000600052602260045260246000fd5b600060028204905060018216806200023357607f821691505b602082108103620002495762000248620001eb565b5b50919050565b60008190508160005260206000209050919050565b60006020601f8301049050919050565b600082821b905092915050565b600060088302620002b37fffffffffffffffffffffffffffffffffffffffffffffffffffffffffffffffff8262000274565b620002bf868362000274565b95508019841693508086168417925050509392505050565b6000819050919050565b6000819050919050565b60006200030c620003066200030084620002d7565b620002e1565b620002d7565b9050919050565b6000819050919050565b6200032883620002eb565b62000340620003378262000313565b84845462000281565b825550505050565b600090565b6200035762000348565b620003648184846200031d565b505050565b5b818110156200038c57620003806000826200034d565b6001810190506200036a565b5050565b601f821115620003db57620003a5816200024f565b620003b08462000264565b81016020851015620003c0578190505b620003d8620003cf8562000264565b83018262000369565b50505b505050565b600082821c905092915050565b60006200040060001984600802620003e0565b1980831691505092915050565b60006200041b8383620003ed565b9150826002028217905092915050565b6200043682620001b1565b67ffffffffffffffff811115620004525762000451620001bc565b5b6200045e82546200021a565b6200046b82828562000390565b600060209050601f831160018114620004a357600084156200048e578287015190505b6200049a85826200040d565b8655506200050a565b601f198416620004b3866200024f565b60005b82811015620004dd57848901518255600182019150602085019450602081019050620004b6565b86831015620004fd5784890151620004f9601f891682620003ed565b8355505b6001600288020188555050505b505050505050565b61391080620005226000396000f3fe6080604052600436106101b75760003560e01c8063715018a6116100ec578063b88d4fde1161008a578063dd487eba11610064578063dd487eba146105ed578063e985e9c514610616578063f0293fd314610653578063f2fde38b14610690576101b7565b8063b88d4fde1461055c578063c87b56dd14610585578063d5abeb01146105c2576101b7565b80638da5cb5b116100c65780638da5cb5b146104c157806395d89b41146104ec578063a0712d6814610517578063a22cb46514610533576101b7565b8063715018a614610456578063818668d71461046d57806385d178f414610496576101b7565b806323b872dd11610159578063453c231011610133578063453c2310146103865780636352211e146103b15780636817c76c146103ee57806370a0823114610419576101b7565b806323b872dd1461031d5780633ccfd60b1461034657806342842e0e1461035d576101b7565b806306fdde031161019557806306fdde0314610261578063081812fc1461028c578063095ea7b3146102c957806318160ddd146102f2576101b7565b80630116bc2d146101bc57806301cd104f146101e757806301ffc9a714610224575b600080fd5b3480156101c857600080fd5b506101d16106b9565b6040516101de9190612233565b60405180910390f35b3480156101f357600080fd5b5061020e60048036038101906102099190612298565b6106cc565b60405161021b9190612355565b60405180910390f35b34801561023057600080fd5b5061024b600480360381019061024691906123cf565b610748565b6040516102589190612233565b60405180910390f35b34801561026d57600080fd5b5061027661082a565b6040516102839190612355565b60405180910390f35b34801561029857600080fd5b506102b360048036038101906102ae9190612298565b6108bc565b6040516102c0919061243d565b60405180910390f35b3480156102d557600080fd5b506102f060048036038101906102eb9190612484565b610902565b005b3480156102fe57600080fd5b50610307610a19565b60405161031491906124d3565b60405180910390f35b34801561032957600080fd5b50610344600480360381019061033f91906124ee565b610a1f565b005b34801561035257600080fd5b5061035b610a7f565b005b34801561036957600080fd5b50610384600480360381019061037f91906124ee565b610b58565b005b34801561039257600080fd5b5061039b610b78565b6040516103a891906124d3565b60405180910390f35b3480156103bd57600080fd5b506103d860048036038101906103d39190612298565b610b7e565b6040516103e5919061243d565b60405180910390f35b3480156103fa57600080fd5b50610403610c04565b60405161041091906124d3565b60405180910390f35b34801561042557600080fd5b50610440600480360381019061043b9190612541565b610c0a565b60405161044d91906124d3565b60405180910390f35b34801561046257600080fd5b5061046b610cc1565b005b34801561047957600080fd5b50610494600480360381019061048f919061259a565b610cd5565b005b3480156104a257600080fd5b506104ab610cfa565b6040516104b891906125e8565b60405180910390f35b3480156104cd57600080fd5b506104d6610d20565b6040516104e3919061243d565b60405180910390f35b3480156104f857600080fd5b50610501610d4a565b60405161050e9190612355565b60405180910390f35b610531600480360381019061052c9190612298565b610ddc565b005b34801561053f57600080fd5b5061055a60048036038101906105559190612603565b610fb3565b005b34801561056857600080fd5b50610583600480360381019061057e9190612778565b610fc9565b005b34801561059157600080fd5b506105ac60048036038101906105a79190612298565b61102b565b6040516105b99190612355565b60405180910390f35b3480156105ce57600080fd5b506105d7611093565b6040516105e491906124d3565b60405180910390f35b3480156105f957600080fd5b50610614600480360381019061060f919061285b565b611099565b005b34801561062257600080fd5b5061063d600480360381019061063891906128a8565b6110b7565b60405161064a9190612233565b60405180910390f35b34801561065f57600080fd5b5061067a60048036038101906106759190612541565b61114b565b60405161068791906124d3565b60405180910390f35b34801561069c57600080fd5b506106b760048036038101906106b29190612541565b611163565b005b600b60009054906101000a900460ff1681565b60606106d7826111e6565b610716576040517f08c379a000000000000000000000000000000000000000000000000000000000815260040161070d90612934565b60405180910390fd5b600c61072183611227565b604051602001610732929190612ad4565b6040516020818303038152906040529050919050565b60007f80ac58cd000000000000000000000000000000000000000000000000000000007bffffffffffffffffffffffffffffffffffffffffffffffffffffffff1916827bffffffffffffffffffffffffffffffffffffffffffffffffffffffff1916148061081357507f5b5e139f000000000000000000000000000000000000000000000000000000007bffffffffffffffffffffffffffffffffffffffffffffffffffffffff1916827bffffffffffffffffffffffffffffffffffffffffffffffffffffffff1916145b806108235750610822826112f5565b5b9050919050565b60606000805461083990612983565b80601f016020809104026020016040519081016040528092919081815260200182805461086590612983565b80156108b25780601f10610887576101008083540402835291602001916108b2565b820191906000526020600020905b81548152906001019060200180831161089557829003601f168201915b5050505050905090565b60006108c78261135f565b6004600083815260200190815260200160002060009054906101000a900473ffffffffffffffffffffffffffffffffffffffff169050919050565b600061090d82610b7e565b90508073ffffffffffffffffffffffffffffffffffffffff168373ffffffffffffffffffffffffffffffffffffffff160361097d576040517f08c379a000000000000000000000000000000000000000000000000000000000815260040161097490612b75565b60405180910390fd5b8073ffffffffffffffffffffffffffffffffffffffff1661099c6113aa565b73ffffffffffffffffffffffffffffffffffffffff1614806109cb57506109ca816109c56113aa565b6110b7565b5b610a0a576040517f08c379a0000000000000000000000000000000000000000000000000000000008152600401610a0190612c07565b60405180910390fd5b610a1483836113b2565b505050565b60085481565b610a30610a2a6113aa565b8261146b565b610a6f576040517f08c379a0000000000000000000000000000000000000000000000000000000008152600401610a6690612c99565b60405180910390fd5b610a7a838383611500565b505050565b610a876117f9565b6000600d60009054906101000a900473ffffffffffffffffffffffffffffffffffffffff1673ffffffffffffffffffffffffffffffffffffffff1647604051610acf90612cea565b60006040518083038185875af1925050503d8060008114610b0c576040519150601f19603f3d011682016040523d82523d6000602084013e610b11565b606091505b5050905080610b55576040517f08c379a0000000000000000000000000000000000000000000000000000000008152600401610b4c90612d4b565b60405180910390fd5b50565b610b7383838360405180602001604052806000815250610fc9565b505050565b600a5481565b600080610b8a83611877565b9050600073ffffffffffffffffffffffffffffffffffffffff168173ffffffffffffffffffffffffffffffffffffffff1603610bfb576040517f08c379a0000000000000000000000000000000000000000000000000000000008152600401610bf290612db7565b60405180910390fd5b80915050919050565b60075481565b60008073ffffffffffffffffffffffffffffffffffffffff168273ffffffffffffffffffffffffffffffffffffffff1603610c7a576040517f08c379a0000000000000000000000000000000000000000000000000000000008152600401610c7190612e49565b60405180910390fd5b600360008373ffffffffffffffffffffffffffffffffffffffff1673ffffffffffffffffffffffffffffffffffffffff168152602001908152602001600020549050919050565b610cc96117f9565b610cd360006118b4565b565b610cdd6117f9565b80600b60006101000a81548160ff02191690831515021790555050565b600d60009054906101000a900473ffffffffffffffffffffffffffffffffffffffff1681565b6000600660009054906101000a900473ffffffffffffffffffffffffffffffffffffffff16905090565b606060018054610d5990612983565b80601f0160208091040260200160405190810160405280929190818152602001828054610d8590612983565b8015610dd25780601f10610da757610100808354040283529160200191610dd2565b820191906000526020600020905b815481529060010190602001808311610db557829003601f168201915b5050505050905090565b600b60009054906101000a900460ff16610e2b576040517f08c379a0000000000000000000000000000000000000000000000000000000008152600401610e2290612eb5565b60405180910390fd5b60075481610e399190612f04565b3414610e7a576040517f08c379a0000000000000000000000000000000000000000000000000000000008152600401610e7190612f92565b60405180910390fd5b60095481600854610e8b9190612fb2565b1115610ecc576040517f08c379a0000000000000000000000000000000000000000000000000000000008152600401610ec390613032565b60405180910390fd5b600a5481600e60003373ffffffffffffffffffffffffffffffffffffffff1673ffffffffffffffffffffffffffffffffffffffff16815260200190815260200160002054610f1a9190612fb2565b1115610f5b576040517f08c379a0000000000000000000000000000000000000000000000000000000008152600401610f529061309e565b60405180910390fd5b60005b81811015610faf5760006001600854610f779190612fb2565b905060086000815480929190610f8c906130be565b9190505550610f9b338261197a565b508080610fa7906130be565b915050610f5e565b5050565b610fc5610fbe6113aa565b8383611998565b5050565b610fda610fd46113aa565b8361146b565b611019576040517f08c379a000000000000000000000000000000000000000000000000000000000815260040161101090612c99565b60405180910390fd5b61102584848484611b04565b50505050565b60606110368261135f565b6000611040611b60565b90506000815111611060576040518060200160405280600081525061108b565b8061106a84611227565b60405160200161107b929190613106565b6040516020818303038152906040525b915050919050565b60095481565b6110a16117f9565b8181600c91826110b29291906132cc565b505050565b6000600560008473ffffffffffffffffffffffffffffffffffffffff1673ffffffffffffffffffffffffffffffffffffffff16815260200190815260200160002060008373ffffffffffffffffffffffffffffffffffffffff1673ffffffffffffffffffffffffffffffffffffffff16815260200190815260200160002060009054906101000a900460ff16905092915050565b600e6020528060005260406000206000915090505481565b61116b6117f9565b600073ffffffffffffffffffffffffffffffffffffffff168173ffffffffffffffffffffffffffffffffffffffff16036111da576040517f08c379a00000000000000000000000000000000000000000000000000000000081526004016111d19061340e565b60405180910390fd5b6111e3816118b4565b50565b60008073ffffffffffffffffffffffffffffffffffffffff1661120883611877565b73ffffffffffffffffffffffffffffffffffffffff1614159050919050565b60606000600161123684611b77565b01905060008167ffffffffffffffff8111156112555761125461264d565b5b6040519080825280601f01601f1916602001820160405280156112875781602001600182028036833780820191505090505b509050600082602001820190505b6001156112ea578080600190039150507f3031323334353637383961626364656600000000000000000000000000000000600a86061a8153600a85816112de576112dd61342e565b5b04945060008503611295575b819350505050919050565b60007f01ffc9a7000000000000000000000000000000000000000000000000000000007bffffffffffffffffffffffffffffffffffffffffffffffffffffffff1916827bffffffffffffffffffffffffffffffffffffffffffffffffffffffff1916149050919050565b611368816111e6565b6113a7576040517f08c379a000000000000000000000000000000000000000000000000000000000815260040161139e90612db7565b60405180910390fd5b50565b600033905090565b816004600083815260200190815260200160002060006101000a81548173ffffffffffffffffffffffffffffffffffffffff021916908373ffffffffffffffffffffffffffffffffffffffff160217905550808273ffffffffffffffffffffffffffffffffffffffff1661142583610b7e565b73ffffffffffffffffffffffffffffffffffffffff167f8c5be1e5ebec7d5bd14f71427d1e84f3dd0314c0f7b2291e5b200ac8c7c3b92560405160405180910390a45050565b60008061147783610b7e565b90508073ffffffffffffffffffffffffffffffffffffffff168473ffffffffffffffffffffffffffffffffffffffff1614806114b957506114b881856110b7565b5b806114f757508373ffffffffffffffffffffffffffffffffffffffff166114df846108bc565b73ffffffffffffffffffffffffffffffffffffffff16145b91505092915050565b8273ffffffffffffffffffffffffffffffffffffffff1661152082610b7e565b73ffffffffffffffffffffffffffffffffffffffff1614611576576040517f08c379a000000000000000000000000000000000000000000000000000000000815260040161156d906134cf565b60405180910390fd5b600073ffffffffffffffffffffffffffffffffffffffff168273ffffffffffffffffffffffffffffffffffffffff16036115e5576040517f08c379a00000000000000000000000000000000000000000000000000000000081526004016115dc90613561565b60405180910390fd5b6115f28383836001611cca565b8273ffffffffffffffffffffffffffffffffffffffff1661161282610b7e565b73ffffffffffffffffffffffffffffffffffffffff1614611668576040517f08c379a000000000000000000000000000000000000000000000000000000000815260040161165f906134cf565b60405180910390fd5b6004600082815260200190815260200160002060006101000a81549073ffffffffffffffffffffffffffffffffffffffff02191690556001600360008573ffffffffffffffffffffffffffffffffffffffff1673ffffffffffffffffffffffffffffffffffffffff168152602001908152602001600020600082825403925050819055506001600360008473ffffffffffffffffffffffffffffffffffffffff1673ffffffffffffffffffffffffffffffffffffffff16815260200190815260200160002060008282540192505081905550816002600083815260200190815260200160002060006101000a81548173ffffffffffffffffffffffffffffffffffffffff021916908373ffffffffffffffffffffffffffffffffffffffff160217905550808273ffffffffffffffffffffffffffffffffffffffff168473ffffffffffffffffffffffffffffffffffffffff167fddf252ad1be2c89b69c2b068fc378daa952ba7f163c4a11628f55a4df523b3ef60405160405180910390a46117f48383836001611df0565b505050565b6118016113aa565b73ffffffffffffffffffffffffffffffffffffffff1661181f610d20565b73ffffffffffffffffffffffffffffffffffffffff1614611875576040517f08c379a000000000000000000000000000000000000000000000000000000000815260040161186c906135cd565b60405180910390fd5b565b60006002600083815260200190815260200160002060009054906101000a900473ffffffffffffffffffffffffffffffffffffffff169050919050565b6000600660009054906101000a900473ffffffffffffffffffffffffffffffffffffffff16905081600660006101000a81548173ffffffffffffffffffffffffffffffffffffffff021916908373ffffffffffffffffffffffffffffffffffffffff1602179055508173ffffffffffffffffffffffffffffffffffffffff168173ffffffffffffffffffffffffffffffffffffffff167f8be0079c531659141344cd1fd0a4f28419497f9722a3daafe3b4186f6b6457e060405160405180910390a35050565b611994828260405180602001604052806000815250611df6565b5050565b8173ffffffffffffffffffffffffffffffffffffffff168373ffffffffffffffffffffffffffffffffffffffff1603611a06576040517f08c379a00000000000000000000000000000000000000000000000000000000081526004016119fd90613639565b60405180910390fd5b80600560008573ffffffffffffffffffffffffffffffffffffffff1673ffffffffffffffffffffffffffffffffffffffff16815260200190815260200160002060008473ffffffffffffffffffffffffffffffffffffffff1673ffffffffffffffffffffffffffffffffffffffff16815260200190815260200160002060006101000a81548160ff0219169083151502179055508173ffffffffffffffffffffffffffffffffffffffff168373ffffffffffffffffffffffffffffffffffffffff167f17307eab39ab6107e8899845ad3d59bd9653f200f220920489ca2b5937696c3183604051611af79190612233565b60405180910390a3505050565b611b0f848484611500565b611b1b84848484611e51565b611b5a576040517f08c379a0000000000000000000000000000000000000000000000000000000008152600401611b51906136cb565b60405180910390fd5b50505050565b606060405180602001604052806000815250905090565b600080600090507a184f03e93ff9f4daa797ed6e38ed64bf6a1f0100000000000000008310611bd5577a184f03e93ff9f4daa797ed6e38ed64bf6a1f0100000000000000008381611bcb57611bca61342e565b5b0492506040810190505b6d04ee2d6d415b85acef81000000008310611c12576d04ee2d6d415b85acef81000000008381611c0857611c0761342e565b5b0492506020810190505b662386f26fc100008310611c4157662386f26fc100008381611c3757611c3661342e565b5b0492506010810190505b6305f5e1008310611c6a576305f5e1008381611c6057611c5f61342e565b5b0492506008810190505b6127108310611c8f576127108381611c8557611c8461342e565b5b0492506004810190505b60648310611cb25760648381611ca857611ca761342e565b5b0492506002810190505b600a8310611cc1576001810190505b80915050919050565b6001811115611dea57600073ffffffffffffffffffffffffffffffffffffffff168473ffffffffffffffffffffffffffffffffffffffff1614611d5e5780600360008673ffffffffffffffffffffffffffffffffffffffff1673ffffffffffffffffffffffffffffffffffffffff1681526020019081526020016000206000828254611d5691906136eb565b925050819055505b600073ffffffffffffffffffffffffffffffffffffffff168373ffffffffffffffffffffffffffffffffffffffff1614611de95780600360008573ffffffffffffffffffffffffffffffffffffffff1673ffffffffffffffffffffffffffffffffffffffff1681526020019081526020016000206000828254611de19190612fb2565b925050819055505b5b50505050565b50505050565b611e008383611fd8565b611e0d6000848484611e51565b611e4c576040517f08c379a0000000000000000000000000000000000000000000000000000000008152600401611e43906136cb565b60405180910390fd5b505050565b6000611e728473ffffffffffffffffffffffffffffffffffffffff166121f5565b15611fcb578373ffffffffffffffffffffffffffffffffffffffff1663150b7a02611e9b6113aa565b8786866040518563ffffffff1660e01b8152600401611ebd9493929190613774565b6020604051808303816000875af1925050508015611ef957506040513d601f19601f82011682018060405250810190611ef691906137d5565b60015b611f7b573d8060008114611f29576040519150601f19603f3d011682016040523d82523d6000602084013e611f2e565b606091505b506000815103611f73576040517f08c379a0000000000000000000000000000000000000000000000000000000008152600401611f6a906136cb565b60405180910390fd5b805181602001fd5b63150b7a0260e01b7bffffffffffffffffffffffffffffffffffffffffffffffffffffffff1916817bffffffffffffffffffffffffffffffffffffffffffffffffffffffff191614915050611fd0565b600190505b949350505050565b600073ffffffffffffffffffffffffffffffffffffffff168273ffffffffffffffffffffffffffffffffffffffff1603612047576040517f08c379a000000000000000000000000000000000000000000000000000000000815260040161203e9061384e565b60405180910390fd5b612050816111e6565b15612090576040517f08c379a0000000000000000000000000000000000000000000000000000000008152600401612087906138ba565b60405180910390fd5b61209e600083836001611cca565b6120a7816111e6565b156120e7576040517f08c379a00000000000000000000000000000000000000000000000000000000081526004016120de906138ba565b60405180910390fd5b6001600360008473ffffffffffffffffffffffffffffffffffffffff1673ffffffffffffffffffffffffffffffffffffffff16815260200190815260200160002060008282540192505081905550816002600083815260200190815260200160002060006101000a81548173ffffffffffffffffffffffffffffffffffffffff021916908373ffffffffffffffffffffffffffffffffffffffff160217905550808273ffffffffffffffffffffffffffffffffffffffff16600073ffffffffffffffffffffffffffffffffffffffff167fddf252ad1be2c89b69c2b068fc378daa952ba7f163c4a11628f55a4df523b3ef60405160405180910390a46121f1600083836001611df0565b5050565b6000808273ffffffffffffffffffffffffffffffffffffffff163b119050919050565b60008115159050919050565b61222d81612218565b82525050565b60006020820190506122486000830184612224565b92915050565b6000604051905090565b600080fd5b600080fd5b6000819050919050565b61227581612262565b811461228057600080fd5b50565b6000813590506122928161226c565b92915050565b6000602082840312156122ae576122ad612258565b5b60006122bc84828501612283565b91505092915050565b600081519050919050565b600082825260208201905092915050565b60005b838110156122ff5780820151818401526020810190506122e4565b60008484015250505050565b6000601f19601f8301169050919050565b6000612327826122c5565b61233181856122d0565b93506123418185602086016122e1565b61234a8161230b565b840191505092915050565b6000602082019050818103600083015261236f818461231c565b905092915050565b60007fffffffff0000000000000000000000000000000000000000000000000000000082169050919050565b6123ac81612377565b81146123b757600080fd5b50565b6000813590506123c9816123a3565b92915050565b6000602082840312156123e5576123e4612258565b5b60006123f3848285016123ba565b91505092915050565b600073ffffffffffffffffffffffffffffffffffffffff82169050919050565b6000612427826123fc565b9050919050565b6124378161241c565b82525050565b6000602082019050612452600083018461242e565b92915050565b6124618161241c565b811461246c57600080fd5b50565b60008135905061247e81612458565b92915050565b6000806040838503121561249b5761249a612258565b5b60006124a98582860161246f565b92505060206124ba85828601612283565b9150509250929050565b6124cd81612262565b82525050565b60006020820190506124e860008301846124c4565b92915050565b60008060006060848603121561250757612506612258565b5b60006125158682870161246f565b93505060206125268682870161246f565b925050604061253786828701612283565b9150509250925092565b60006020828403121561255757612556612258565b5b60006125658482850161246f565b91505092915050565b61257781612218565b811461258257600080fd5b50565b6000813590506125948161256e565b92915050565b6000602082840312156125b0576125af612258565b5b60006125be84828501612585565b91505092915050565b60006125d2826123fc565b9050919050565b6125e2816125c7565b82525050565b60006020820190506125fd60008301846125d9565b92915050565b6000806040838503121561261a57612619612258565b5b60006126288582860161246f565b925050602061263985828601612585565b9150509250929050565b600080fd5b600080fd5b7f4e487b7100000000000000000000000000000000000000000000000000000000600052604160045260246000fd5b6126858261230b565b810181811067ffffffffffffffff821117156126a4576126a361264d565b5b80604052505050565b60006126b761224e565b90506126c3828261267c565b919050565b600067ffffffffffffffff8211156126e3576126e261264d565b5b6126ec8261230b565b9050602081019050919050565b82818337600083830152505050565b600061271b612716846126c8565b6126ad565b90508281526020810184848401111561273757612736612648565b5b6127428482856126f9565b509392505050565b600082601f83011261275f5761275e612643565b5b813561276f848260208601612708565b91505092915050565b6000806000806080858703121561279257612791612258565b5b60006127a08782880161246f565b94505060206127b18782880161246f565b93505060406127c287828801612283565b925050606085013567ffffffffffffffff8111156127e3576127e261225d565b5b6127ef8782880161274a565b91505092959194509250565b600080fd5b600080fd5b60008083601f84011261281b5761281a612643565b5b8235905067ffffffffffffffff811115612838576128376127fb565b5b60208301915083600182028301111561285457612853612800565b5b9250929050565b6000806020838503121561287257612871612258565b5b600083013567ffffffffffffffff8111156128905761288f61225d565b5b61289c85828601612805565b92509250509250929050565b600080604083850312156128bf576128be612258565b5b60006128cd8582860161246f565b92505060206128de8582860161246f565b9150509250929050565b7f546f6b656e20646f6573206e6f74206578697374210000000000000000000000600082015250565b600061291e6015836122d0565b9150612929826128e8565b602082019050919050565b6000602082019050818103600083015261294d81612911565b9050919050565b7f4e487b7100000000000000000000000000000000000000000000000000000000600052602260045260246000fd5b6000600282049050600182168061299b57607f821691505b6020821081036129ae576129ad612954565b5b50919050565b600081905092915050565b60008190508160005260206000209050919050565b600081546129e181612983565b6129eb81866129b4565b94506001821660008114612a065760018114612a1b57612a4e565b60ff1983168652811515820286019350612a4e565b612a24856129bf565b60005b83811015612a4657815481890152600182019150602081019050612a27565b838801955050505b50505092915050565b6000612a62826122c5565b612a6c81856129b4565b9350612a7c8185602086016122e1565b80840191505092915050565b7f2e6a736f6e000000000000000000000000000000000000000000000000000000600082015250565b6000612abe6005836129b4565b9150612ac982612a88565b600582019050919050565b6000612ae082856129d4565b9150612aec8284612a57565b9150612af782612ab1565b91508190509392505050565b7f4552433732313a20617070726f76616c20746f2063757272656e74206f776e6560008201527f7200000000000000000000000000000000000000000000000000000000000000602082015250565b6000612b5f6021836122d0565b9150612b6a82612b03565b604082019050919050565b60006020820190508181036000830152612b8e81612b52565b9050919050565b7f4552433732313a20617070726f76652063616c6c6572206973206e6f7420746f60008201527f6b656e206f776e6572206f7220617070726f76656420666f7220616c6c000000602082015250565b6000612bf1603d836122d0565b9150612bfc82612b95565b604082019050919050565b60006020820190508181036000830152612c2081612be4565b9050919050565b7f4552433732313a2063616c6c6572206973206e6f7420746f6b656e206f776e6560008201527f72206f7220617070726f76656400000000000000000000000000000000000000602082015250565b6000612c83602d836122d0565b9150612c8e82612c27565b604082019050919050565b60006020820190508181036000830152612cb281612c76565b9050919050565b600081905092915050565b50565b6000612cd4600083612cb9565b9150612cdf82612cc4565b600082019050919050565b6000612cf582612cc7565b9150819050919050565b7f776964746864726177206661696c656400000000000000000000000000000000600082015250565b6000612d356010836122d0565b9150612d4082612cff565b602082019050919050565b60006020820190508181036000830152612d6481612d28565b9050919050565b7f4552433732313a20696e76616c696420746f6b656e2049440000000000000000600082015250565b6000612da16018836122d0565b9150612dac82612d6b565b602082019050919050565b60006020820190508181036000830152612dd081612d94565b9050919050565b7f4552433732313a2061646472657373207a65726f206973206e6f74206120766160008201527f6c6964206f776e65720000000000000000000000000000000000000000000000602082015250565b6000612e336029836122d0565b9150612e3e82612dd7565b604082019050919050565b60006020820190508181036000830152612e6281612e26565b9050919050565b7f6d696e74696e67206e6f7420656e61626c656400000000000000000000000000600082015250565b6000612e9f6013836122d0565b9150612eaa82612e69565b602082019050919050565b60006020820190508181036000830152612ece81612e92565b9050919050565b7f4e487b7100000000000000000000000000000000000000000000000000000000600052601160045260246000fd5b6000612f0f82612262565b9150612f1a83612262565b9250828202612f2881612262565b91508282048414831517612f3f57612f3e612ed5565b5b5092915050565b7f57726f6e67206d696e742076616c756500000000000000000000000000000000600082015250565b6000612f7c6010836122d0565b9150612f8782612f46565b602082019050919050565b60006020820190508181036000830152612fab81612f6f565b9050919050565b6000612fbd82612262565b9150612fc883612262565b9250828201905080821115612fe057612fdf612ed5565b5b92915050565b7f736f6c64206f7574000000000000000000000000000000000000000000000000600082015250565b600061301c6008836122d0565b915061302782612fe6565b602082019050919050565b6000602082019050818103600083015261304b8161300f565b9050919050565b7f657863656564206d61782077616c6c6574000000000000000000000000000000600082015250565b60006130886011836122d0565b915061309382613052565b602082019050919050565b600060208201905081810360008301526130b78161307b565b9050919050565b60006130c982612262565b91507fffffffffffffffffffffffffffffffffffffffffffffffffffffffffffffffff82036130fb576130fa612ed5565b5b600182019050919050565b60006131128285612a57565b915061311e8284612a57565b91508190509392505050565b600082905092915050565b60006020601f8301049050919050565b600082821b905092915050565b6000600883026131827fffffffffffffffffffffffffffffffffffffffffffffffffffffffffffffffff82613145565b61318c8683613145565b95508019841693508086168417925050509392505050565b6000819050919050565b60006131c96131c46131bf84612262565b6131a4565b612262565b9050919050565b6000819050919050565b6131e3836131ae565b6131f76131ef826131d0565b848454613152565b825550505050565b600090565b61320c6131ff565b6132178184846131da565b505050565b5b8181101561323b57613230600082613204565b60018101905061321d565b5050565b601f82111561328057613251816129bf565b61325a84613135565b81016020851015613269578190505b61327d61327585613135565b83018261321c565b50505b505050565b600082821c905092915050565b60006132a360001984600802613285565b1980831691505092915050565b60006132bc8383613292565b9150826002028217905092915050565b6132d6838361312a565b67ffffffffffffffff8111156132ef576132ee61264d565b5b6132f98254612983565b61330482828561323f565b6000601f8311600181146133335760008415613321578287013590505b61332b85826132b0565b865550613393565b601f198416613341866129bf565b60005b8281101561336957848901358255600182019150602085019450602081019050613344565b868310156133865784890135613382601f891682613292565b8355505b6001600288020188555050505b50505050505050565b7f4f776e61626c653a206e6577206f776e657220697320746865207a65726f206160008201527f6464726573730000000000000000000000000000000000000000000000000000602082015250565b60006133f86026836122d0565b91506134038261339c565b604082019050919050565b60006020820190508181036000830152613427816133eb565b9050919050565b7f4e487b7100000000000000000000000000000000000000000000000000000000600052601260045260246000fd5b7f4552433732313a207472616e736665722066726f6d20696e636f72726563742060008201527f6f776e6572000000000000000000000000000000000000000000000000000000602082015250565b60006134b96025836122d0565b91506134c48261345d565b604082019050919050565b600060208201905081810360008301526134e8816134ac565b9050919050565b7f4552433732313a207472616e7366657220746f20746865207a65726f2061646460008201527f7265737300000000000000000000000000000000000000000000000000000000602082015250565b600061354b6024836122d0565b9150613556826134ef565b604082019050919050565b6000602082019050818103600083015261357a8161353e565b9050919050565b7f4f776e61626c653a2063616c6c6572206973206e6f7420746865206f776e6572600082015250565b60006135b76020836122d0565b91506135c282613581565b602082019050919050565b600060208201905081810360008301526135e6816135aa565b9050919050565b7f4552433732313a20617070726f766520746f2063616c6c657200000000000000600082015250565b60006136236019836122d0565b915061362e826135ed565b602082019050919050565b6000602082019050818103600083015261365281613616565b9050919050565b7f4552433732313a207472616e7366657220746f206e6f6e20455243373231526560008201527f63656976657220696d706c656d656e7465720000000000000000000000000000602082015250565b60006136b56032836122d0565b91506136c082613659565b604082019050919050565b600060208201905081810360008301526136e4816136a8565b9050919050565b60006136f682612262565b915061370183612262565b925082820390508181111561371957613718612ed5565b5b92915050565b600081519050919050565b600082825260208201905092915050565b60006137468261371f565b613750818561372a565b93506137608185602086016122e1565b6137698161230b565b840191505092915050565b6000608082019050613789600083018761242e565b613796602083018661242e565b6137a360408301856124c4565b81810360608301526137b5818461373b565b905095945050505050565b6000815190506137cf816123a3565b92915050565b6000602082840312156137eb576137ea612258565b5b60006137f9848285016137c0565b91505092915050565b7f4552433732313a206d696e7420746f20746865207a65726f2061646472657373600082015250565b60006138386020836122d0565b915061384382613802565b602082019050919050565b600060208201905081810360008301526138678161382b565b9050919050565b7f4552433732313a20746f6b656e20616c7265616479206d696e74656400000000600082015250565b60006138a4601c836122d0565b91506138af8261386e565b602082019050919050565b600060208201905081810360008301526138d381613897565b905091905056fea2646970667358221220989c63cda5a2cc870351ab64142461f7915c9928295a9389028489da5606ed5264736f6c63430008110033",
  "linkReferences": {},
  "deployedLinkReferences": {}
}